:1009DD000A0A53746F7020576174636809173030B9
:0709ED003A30303A3030309F
:10080000120A4D1209F5E4F520E5202403FF740ACD
:100810002520F8E6FBE4FD1209C00520E520C3947D
:100820000A40E6120935BF0104D28C8019BF0204C8
:10083000C28C800CBF030FC28CE4F516F515F514BD
:1008400075193A751C3AE51675F00A842430F517C7
:10085000E51675F00A84E5F02430F518E51575F015
:100860000A842430F51AE51575F00A84E5F0243081
:10087000F51BE51475F064842430F51DE51475F05E
:100880000A84E5F02430F51EF51FE4F520E520C3C9
:100890009409508FE5202404FF74172520F8E6FB07
:0908A0007D011209C0052080E46D
:03000B0002098463
:10098400C0E0C0D0758CFC758A18C3E51494E77474
:1009940080948350040514801EE515C3943B5004D1
:1009A4000515800CE516C3943B500A051675150011
:0C09B4007514008002C28CD0D0D0E0325C
:100A0900EFD39400400B7EF27D04DDFEDEFA1F80F9
:010A1900EFED
:010A1A0022B9
:100A1B007580FFC2A6D2A5D2A7AF80C2A7EF20E7F1
:010A2B00F6D4
:010A2C0022A7
:100A2D00AE07120A1BC2A6C2A58E80D2A7C2A722EC
:100A3D00AE07120A1BD2A6C2A58E80D2A7C2A722CC
:1009C000AE07AC0353050153060FED600343064029
:0D09D000430680AF06120A2DAF04020A3D57
:1009F5007F38120A2D7F0C120A2D7F06120A2D7FD1
:040A050001020A2DB3
:100A4D00758901758CFC758A18D2A9C28CD2AF221A
:10093500E4FCE5B0540F640F603DE5094508703CE3
:100945007F0AFE120A09E5B0540F640F602E750880
:1009550000750901E5B0540F24F9601724FC600FF8
:1009650024FE60071470157C0280117C01800D7CCB
:0E0975000380097C048005E4F508F509AF0451
:010983002251
:030000000208A94A
:0C08A900787FE4F6D8FD7581200208F08D
:1008B500020800E493A3F8E493A34003F68001F251
:1008C50008DFF48029E493A3F85407240CC8C33344
:1008D500C4540F4420C8834004F456800146F6DF13
:1008E500E4800B01020408102040809009DDE47EBD
:1008F500019360BCA3FF543F30E509541FFEE49308
:10090500A360010ECF54C025E060A840B8E493A3CE
:10091500FAE493A3F8E493A3C8C582C8CAC583CAF9
:10092500F0A3C8C582C8CAC583CADFE9DEE780BEB1
:0109F4000002
:00000001FF
